{
  "_format": "hh-sol-artifact-1",
  "contractName": "CreditRegistry",
  "sourceName": "contracts/CreditRegistry.sol",
  "abi": [
    {
      "inputs": [
        {
          "internalType": "address",
          "name": "initialOracle",
          "type": "address"
        }
      ],
      "stateMutability": "nonpayable",
      "type": "constructor"
    },
    {
      "inputs": [],
      "name": "OnlyControllerAllowed",
      "type": "error"
    },
    {
      "inputs": [],
      "name": "OnlyOracleAllowed",
      "type": "error"
    },
    {
      "inputs": [
        {
          "internalType": "address",
          "name": "owner",
          "type": "address"
        }
      ],
      "name": "OwnableInvalidOwner",
      "type": "error"
    },
    {
      "inputs": [
        {
          "internalType": "address",
          "name": "account",
          "type": "address"
        }
      ],
      "name": "OwnableUnauthorizedAccount",
      "type": "error"
    },
    {
      "inputs": [],
      "name": "ScoreOutOfRange",
      "type": "error"
    },
    {
      "anonymous": false,
      "inputs": [
        {
          "indexed": true,
          "internalType": "address",
          "name": "controller",
          "type": "address"
        },
        {
          "indexed": false,
          "internalType": "bool",
          "name": "allowed",
          "type": "bool"
        }
      ],
      "name": "ControllerSet",
      "type": "event"
    },
    {
      "anonymous": false,
      "inputs": [
        {
          "indexed": true,
          "internalType": "address",
          "name": "oldOracle",
          "type": "address"
        },
        {
          "indexed": true,
          "internalType": "address",
          "name": "newOracle",
          "type": "address"
        }
      ],
      "name": "OracleUpdated",
      "type": "event"
    },
    {
      "anonymous": false,
      "inputs": [
        {
          "indexed": true,
          "internalType": "address",
          "name": "previousOwner",
          "type": "address"
        },
        {
          "indexed": true,
          "internalType": "address",
          "name": "newOwner",
          "type": "address"
        }
      ],
      "name": "OwnershipTransferred",
      "type": "event"
    },
    {
      "anonymous": false,
      "inputs": [
        {
          "indexed": true,
          "internalType": "address",
          "name": "subject",
          "type": "address"
        },
        {
          "indexed": false,
          "internalType": "uint8",
          "name": "score",
          "type": "uint8"
        },
        {
          "indexed": false,
          "internalType": "uint256",
          "name": "timestamp",
          "type": "uint256"
        }
      ],
      "name": "ScoreUpdated",
      "type": "event"
    },
    {
      "inputs": [
        {
          "internalType": "address",
          "name": "",
          "type": "address"
        }
      ],
      "name": "controllers",
      "outputs": [
        {
          "internalType": "bool",
          "name": "",
          "type": "bool"
        }
      ],
      "stateMutability": "view",
      "type": "function"
    },
    {
      "inputs": [
        {
          "internalType": "address",
          "name": "subject",
          "type": "address"
        }
      ],
      "name": "getDefaultCount",
      "outputs": [
        {
          "internalType": "uint256",
          "name": "",
          "type": "uint256"
        }
      ],
      "stateMutability": "view",
      "type": "function"
    },
    {
      "inputs": [
        {
          "internalType": "address",
          "name": "subject",
          "type": "address"
        }
      ],
      "name": "getScore",
      "outputs": [
        {
          "internalType": "uint8",
          "name": "score",
          "type": "uint8"
        },
        {
          "internalType": "uint256",
          "name": "timestamp",
          "type": "uint256"
        }
      ],
      "stateMutability": "view",
      "type": "function"
    },
    {
      "inputs": [],
      "name": "oracle",
      "outputs": [
        {
          "internalType": "address",
          "name": "",
          "type": "address"
        }
      ],
      "stateMutability": "view",
      "type": "function"
    },
    {
      "inputs": [],
      "name": "owner",
      "outputs": [
        {
          "internalType": "address",
          "name": "",
          "type": "address"
        }
      ],
      "stateMutability": "view",
      "type": "function"
    },
    {
      "inputs": [
        {
          "internalType": "address",
          "name": "subject",
          "type": "address"
        }
      ],
      "name": "penalizeDefault",
      "outputs": [],
      "stateMutability": "nonpayable",
      "type": "function"
    },
    {
      "inputs": [],
      "name": "renounceOwnership",
      "outputs": [],
      "stateMutability": "nonpayable",
      "type": "function"
    },
    {
      "inputs": [
        {
          "internalType": "address",
          "name": "controller",
          "type": "address"
        },
        {
          "internalType": "bool",
          "name": "allowed",
          "type": "bool"
        }
      ],
      "name": "setController",
      "outputs": [],
      "stateMutability": "nonpayable",
      "type": "function"
    },
    {
      "inputs": [
        {
          "internalType": "address",
          "name": "newOracle",
          "type": "address"
        }
      ],
      "name": "setOracle",
      "outputs": [],
      "stateMutability": "nonpayable",
      "type": "function"
    },
    {
      "inputs": [
        {
          "internalType": "address",
          "name": "subject",
          "type": "address"
        },
        {
          "internalType": "uint8",
          "name": "score",
          "type": "uint8"
        }
      ],
      "name": "setScore",
      "outputs": [],
      "stateMutability": "nonpayable",
      "type": "function"
    },
    {
      "inputs": [
        {
          "internalType": "address",
          "name": "newOwner",
          "type": "address"
        }
      ],
      "name": "transferOwnership",
      "outputs": [],
      "stateMutability": "nonpayable",
      "type": "function"
    }
  ],
  "bytecode": "0x608060405234801561000f575f80fd5b5060405161084f38038061084f83398101604081905261002e91610153565b338061005357604051631e4fbdf760e01b81525f600482015260240160405180910390fd5b61005c81610104565b50600180546001600160a01b0319166001600160a01b0383169081179091556040515f907f078c3b417dadf69374a59793b829c52001247130433427049317bde56607b1b7908290a36001600160a01b0381165f81815260036020908152604091829020805460ff1916600190811790915591519182527f9c1e55b2ea976b1ce106746d9325847e838c89adca542764df43b80cadb59b04910160405180910390a250610180565b5f80546001600160a01b038381166001600160a01b0319831681178455604051919092169283917f8be0079c531659141344cd1fd0a4f28419497f9722a3daafe3b4186f6b6457e09190a35050565b5f60208284031215610163575f80fd5b81516001600160a01b0381168114610179575f80fd5b9392505050565b6106c28061018d5f395ff3fe608060405234801561000f575f80fd5b50600436106100a6575f3560e01c8063d47875d01161006e578063d47875d01461011a578063da8c229e1461017b578063db2ebdad146101ad578063e0dba60f146101c0578063f2fde38b146101d3578063f669f685146101e6575f80fd5b8063715018a6146100aa5780637adbf973146100b45780637dc0d1d0146100c75780638da5cb5b146100f7578063cc8bc0cf14610107575b5f80fd5b6100b261021c565b005b6100b26100c23660046105be565b61022f565b6001546100da906001600160a01b031681565b6040516001600160a01b0390911681526020015b60405180910390f35b5f546001600160a01b03166100da565b6100b26101153660046105be565b610288565b6101626101283660046105be565b6001600160a01b03165f908152600260209081526040918290208251808401909352805460ff168084526001909101549290910182905291565b6040805160ff90931683526020830191909152016100ee565b61019d6101893660046105be565b60036020525f908152604090205460ff1681565b60405190151581526020016100ee565b6100b26101bb3660046105de565b6103b1565b6100b26101ce366004610618565b610487565b6100b26101e13660046105be565b6104e6565b61020e6101f43660046105be565b6001600160a01b03165f9081526004602052604090205490565b6040519081526020016100ee565b610224610528565b61022d5f610554565b565b610237610528565b600180546001600160a01b038381166001600160a01b0319831681179093556040519116919082907f078c3b417dadf69374a59793b829c52001247130433427049317bde56607b1b7905f90a35050565b335f9081526003602052604090205460ff161580156102b157505f546001600160a01b03163314155b156102cf57604051632c5aa3d160e11b815260040160405180910390fd5b6001600160a01b0381165f9081526002602052604081206001810154909190156102fd57815460ff16610300565b60465b905060148160ff1611156103205761031960148261065a565b9050610323565b505f5b815460ff191660ff8216178255426001808401919091556001600160a01b0384165f9081526004602052604081208054909190610361908490610679565b90915550506040805160ff831681524260208201526001600160a01b038516917fdc7724b4287acea67f086bc934c52cc68c455887e1f03d975deaecb3ead652ff910160405180910390a2505050565b6001546001600160a01b031633146103dc5760405163d342cbff60e01b815260040160405180910390fd5b60648160ff1611156104015760405163c3d20c6b60e01b815260040160405180910390fd5b60408051808201825260ff8381168083524260208085018281526001600160a01b0389165f818152600284528890209651875460ff1916961695909517865551600190950194909455845191825292810192909252917fdc7724b4287acea67f086bc934c52cc68c455887e1f03d975deaecb3ead652ff91015b60405180910390a25050565b61048f610528565b6001600160a01b0382165f81815260036020908152604091829020805460ff191685151590811790915591519182527f9c1e55b2ea976b1ce106746d9325847e838c89adca542764df43b80cadb59b04910161047b565b6104ee610528565b6001600160a01b03811661051c57604051631e4fbdf760e01b81525f60048201526024015b60405180910390fd5b61052581610554565b50565b5f546001600160a01b0316331461022d5760405163118cdaa760e01b8152336004820152602401610513565b5f80546001600160a01b038381166001600160a01b0319831681178455604051919092169283917f8be0079c531659141344cd1fd0a4f28419497f9722a3daafe3b4186f6b6457e09190a35050565b80356001600160a01b03811681146105b9575f80fd5b919050565b5f602082840312156105ce575f80fd5b6105d7826105a3565b9392505050565b5f80604083850312156105ef575f80fd5b6105f8836105a3565b9150602083013560ff8116811461060d575f80fd5b809150509250929050565b5f8060408385031215610629575f80fd5b610632836105a3565b91506020830135801515811461060d575f80fd5b634e487b7160e01b5f52601160045260245ffd5b60ff828116828216039081111561067357610673610646565b92915050565b808201808211156106735761067361064656fea2646970667358221220a9ab600fd80b045332c3f44641612c9a0d98298d5b81502cd2e27ee8480cda3a64736f6c63430008180033",
  "linkReferences": {},
  "deployedLinkReferences": {}
}