{
  "_format": "hh-sol-artifact-1",
  "contractName": "InvoiceMarketplace",
  "sourceName": "contracts/InvoiceMarketplace.sol",
  "abi": [
    {
      "inputs": [
        {
          "internalType": "address",
          "name": "_receivableNFT",
          "type": "address"
        },
        {
          "internalType": "address",
          "name": "_creditRegistry",
          "type": "address"
        },
        {
          "internalType": "address",
          "name": "_mUSDC",
          "type": "address"
        }
      ],
      "stateMutability": "nonpayable",
      "type": "constructor"
    },
    {
      "inputs": [],
      "name": "DueDateNotPassed",
      "type": "error"
    },
    {
      "inputs": [],
      "name": "GracePeriodActive",
      "type": "error"
    },
    {
      "inputs": [],
      "name": "InvalidStatus",
      "type": "error"
    },
    {
      "inputs": [],
      "name": "NotPending",
      "type": "error"
    },
    {
      "inputs": [],
      "name": "OnlyAdminAllowed",
      "type": "error"
    },
    {
      "inputs": [],
      "name": "OnlyEscrowAllowed",
      "type": "error"
    },
    {
      "inputs": [],
      "name": "TransferFailed",
      "type": "error"
    },
    {
      "anonymous": false,
      "inputs": [
        {
          "indexed": true,
          "internalType": "uint256",
          "name": "tokenId",
          "type": "uint256"
        },
        {
          "indexed": true,
          "internalType": "address",
          "name": "lender",
          "type": "address"
        },
        {
          "indexed": false,
          "internalType": "uint256",
          "name": "fundedAmount",
          "type": "uint256"
        },
        {
          "indexed": false,
          "internalType": "uint256",
          "name": "discountBps",
          "type": "uint256"
        }
      ],
      "name": "ReceivableFunded",
      "type": "event"
    },
    {
      "inputs": [],
      "name": "BASE_DISCOUNT_BPS",
      "outputs": [
        {
          "internalType": "uint256",
          "name": "",
          "type": "uint256"
        }
      ],
      "stateMutability": "view",
      "type": "function"
    },
    {
      "inputs": [],
      "name": "BPS_PER_POINT",
      "outputs": [
        {
          "internalType": "uint256",
          "name": "",
          "type": "uint256"
        }
      ],
      "stateMutability": "view",
      "type": "function"
    },
    {
      "inputs": [],
      "name": "MIN_DISCOUNT_BPS",
      "outputs": [
        {
          "internalType": "uint256",
          "name": "",
          "type": "uint256"
        }
      ],
      "stateMutability": "view",
      "type": "function"
    },
    {
      "inputs": [
        {
          "internalType": "address",
          "name": "supplier",
          "type": "address"
        }
      ],
      "name": "calculateDiscountRate",
      "outputs": [
        {
          "internalType": "uint256",
          "name": "discountBps",
          "type": "uint256"
        }
      ],
      "stateMutability": "view",
      "type": "function"
    },
    {
      "inputs": [],
      "name": "creditRegistry",
      "outputs": [
        {
          "internalType": "contract CreditRegistry",
          "name": "",
          "type": "address"
        }
      ],
      "stateMutability": "view",
      "type": "function"
    },
    {
      "inputs": [],
      "name": "escrow",
      "outputs": [
        {
          "internalType": "address",
          "name": "",
          "type": "address"
        }
      ],
      "stateMutability": "view",
      "type": "function"
    },
    {
      "inputs": [
        {
          "internalType": "uint256",
          "name": "tokenId",
          "type": "uint256"
        }
      ],
      "name": "fundReceivable",
      "outputs": [],
      "stateMutability": "nonpayable",
      "type": "function"
    },
    {
      "inputs": [
        {
          "internalType": "uint256",
          "name": "tokenId",
          "type": "uint256"
        }
      ],
      "name": "getFunding",
      "outputs": [
        {
          "components": [
            {
              "internalType": "address",
              "name": "lender",
              "type": "address"
            },
            {
              "internalType": "uint256",
              "name": "fundedAmount",
              "type": "uint256"
            },
            {
              "internalType": "uint256",
              "name": "discountBps",
              "type": "uint256"
            },
            {
              "internalType": "uint256",
              "name": "fundedAt",
              "type": "uint256"
            }
          ],
          "internalType": "struct Funding",
          "name": "",
          "type": "tuple"
        }
      ],
      "stateMutability": "view",
      "type": "function"
    },
    {
      "inputs": [],
      "name": "mUSDC",
      "outputs": [
        {
          "internalType": "contract IERC20",
          "name": "",
          "type": "address"
        }
      ],
      "stateMutability": "view",
      "type": "function"
    },
    {
      "inputs": [
        {
          "internalType": "uint256",
          "name": "tokenId",
          "type": "uint256"
        }
      ],
      "name": "markDefault",
      "outputs": [],
      "stateMutability": "nonpayable",
      "type": "function"
    },
    {
      "inputs": [],
      "name": "receivableNFT",
      "outputs": [
        {
          "internalType": "contract ReceivableNFT",
          "name": "",
          "type": "address"
        }
      ],
      "stateMutability": "view",
      "type": "function"
    },
    {
      "inputs": [
        {
          "internalType": "uint256",
          "name": "tokenId",
          "type": "uint256"
        }
      ],
      "name": "releaseSpread",
      "outputs": [],
      "stateMutability": "nonpayable",
      "type": "function"
    },
    {
      "inputs": [
        {
          "internalType": "address",
          "name": "_escrow",
          "type": "address"
        }
      ],
      "name": "setEscrow",
      "outputs": [],
      "stateMutability": "nonpayable",
      "type": "function"
    }
  ],
  "bytecode": "0x60e060405234801561000f575f80fd5b5060405161115f38038061115f83398101604081905261002e91610066565b6001600160a01b0392831660805290821660a0521660c0526100a6565b80516001600160a01b0381168114610061575f80fd5b919050565b5f805f60608486031215610078575f80fd5b6100818461004b565b925061008f6020850161004b565b915061009d6040850161004b565b90509250925092565b60805160a05160c05161103c6101235f395f818161022901528181610379015281816104300152610bf401525f8181610156015281816105f701526109cf01525f818160e9015281816102630152818161052a015281816106ce015281816106fd015281816108350152818161094c0152610aea015261103c5ff3fe608060405234801561000f575f80fd5b50600436106100cb575f3560e01c8063c2f18f0611610088578063e2fdcc1711610063578063e2fdcc17146101b0578063ebed4bd4146101c2578063f63a659f14610211578063f89ec5f514610224575f80fd5b8063c2f18f061461018b578063cbd69fcb14610194578063e1d927c81461019d575f80fd5b80631b6942f7146100cf57806356892ab9146100e4578063975a222b14610128578063a12c9cfb14610149578063b015a5e814610151578063c10c354614610178575b5f80fd5b6100e26100dd366004610c83565b61024b565b005b61010b7f000000000000000000000000000000000000000000000000000000000000000081565b6040516001600160a01b0390911681526020015b60405180910390f35b61013b610136366004610cb1565b6105d2565b60405190815260200161011f565b61013b600a81565b61010b7f000000000000000000000000000000000000000000000000000000000000000081565b6100e2610186366004610cb1565b6106cc565b61013b6105dc81565b61013b6101f481565b6100e26101ab366004610c83565b61081d565b5f5461010b906001600160a01b031681565b6101d56101d0366004610c83565b610a2c565b60405161011f919081516001600160a01b0316815260208083015190820152604080830151908201526060918201519181019190915260800190565b6100e261021f366004610c83565b610aa8565b61010b7f000000000000000000000000000000000000000000000000000000000000000081565b60405163a94c9f7d60e01b8152600481018290525f907f00000000000000000000000000000000000000000000000000000000000000006001600160a01b03169063a94c9f7d906024015f60405180830381865afa1580156102af573d5f803e3d5ffd5b505050506040513d5f823e601f3d908101601f191682016040526102d69190810190610de0565b90505f81610100015160038111156102f0576102f0610ee5565b1461030e57604051633ee3282d60e11b815260040160405180910390fd5b5f61031b825f01516105d2565b90505f612710828460a001516103319190610f0d565b61033b9190610f2a565b90505f818460a0015161034e9190610f49565b60a08501516040516323b872dd60e01b815233600482015230602482015260448101919091529091507f00000000000000000000000000000000000000000000000000000000000000006001600160a01b0316906323b872dd906064016020604051808303815f875af11580156103c7573d5f803e3d5ffd5b505050506040513d601f19601f820116820180604052508101906103eb9190610f5c565b610408576040516312171d8360e31b815260040160405180910390fd5b835160405163a9059cbb60e01b81526001600160a01b039182166004820152602481018390527f00000000000000000000000000000000000000000000000000000000000000009091169063a9059cbb906044016020604051808303815f875af1158015610478573d5f803e3d5ffd5b505050506040513d601f19601f8201168201806040525081019061049c9190610f5c565b6104b9576040516312171d8360e31b815260040160405180910390fd5b60408051608081018252338152602080820184815282840187815242606085019081525f8b8152600194859052869020945185546001600160a01b0319166001600160a01b0391821617865592518585015590516002850155516003909301929092559151633a1b3d3160e01b81527f000000000000000000000000000000000000000000000000000000000000000090911691633a1b3d3191610561918991600401610f7b565b5f604051808303815f87803b158015610578575f80fd5b505af115801561058a573d5f803e3d5ffd5b505060408051848152602081018790523393508892507f66a005cb4f7af882f8ed71806b4291c06a4aae448ff0c6ab447aff2f763ac0c1910160405180910390a35050505050565b604051630d47875d60e41b81526001600160a01b0382811660048301525f91829182917f00000000000000000000000000000000000000000000000000000000000000009091169063d47875d0906024016040805180830381865afa15801561063d573d5f803e3d5ffd5b505050506040513d601f19601f820116820180604052508101906106619190610fab565b91509150805f0361067757506105dc9392505050565b5f610686600a60ff8516610f0d565b90506105dc811061069d57506101f4949350505050565b5f6106aa826105dc610f49565b90506101f48110156106c357506101f495945050505050565b95945050505050565b7f00000000000000000000000000000000000000000000000000000000000000006001600160a01b03166391d148547f00000000000000000000000000000000000000000000000000000000000000006001600160a01b031663a217fddf6040518163ffffffff1660e01b8152600401602060405180830381865afa158015610757573d5f803e3d5ffd5b505050506040513d601f19601f8201168201806040525081019061077b9190610fdc565b6040516001600160e01b031960e084901b1681526004810191909152336024820152604401602060405180830381865afa1580156107bb573d5f803e3d5ffd5b505050506040513d601f19601f820116820180604052508101906107df9190610f5c565b6107fc57604051634777b53760e11b815260040160405180910390fd5b5f80546001600160a01b0319166001600160a01b0392909216919091179055565b60405163a94c9f7d60e01b8152600481018290525f907f00000000000000000000000000000000000000000000000000000000000000006001600160a01b03169063a94c9f7d906024015f60405180830381865afa158015610881573d5f803e3d5ffd5b505050506040513d5f823e601f3d908101601f191682016040526108a89190810190610de0565b9050600181610100015160038111156108c3576108c3610ee5565b146108e1576040516307a92f1960e51b815260040160405180910390fd5b8060c00151421161090557604051632a8611a560e11b815260040160405180910390fd5b60c08101516109179062015180610ff3565b42116109365760405163478f84e760e01b815260040160405180910390fd5b604051630732164560e41b8152600481018390527f00000000000000000000000000000000000000000000000000000000000000006001600160a01b0316906373216450906024015f604051808303815f87803b158015610995575f80fd5b505af11580156109a7573d5f803e3d5ffd5b50505050602081015160405163cc8bc0cf60e01b81526001600160a01b0391821660048201527f00000000000000000000000000000000000000000000000000000000000000009091169063cc8bc0cf906024015f604051808303815f87803b158015610a12575f80fd5b505af1158015610a24573d5f803e3d5ffd5b505050505050565b610a5c60405180608001604052805f6001600160a01b031681526020015f81526020015f81526020015f81525090565b505f90815260016020818152604092839020835160808101855281546001600160a01b031681529281015491830191909152600281015492820192909252600390910154606082015290565b5f546001600160a01b03163314610ad2576040516329f0cfd960e01b815260040160405180910390fd5b60405163a94c9f7d60e01b8152600481018290525f907f00000000000000000000000000000000000000000000000000000000000000006001600160a01b03169063a94c9f7d906024015f60405180830381865afa158015610b36573d5f803e3d5ffd5b505050506040513d5f823e601f3d908101601f19168201604052610b5d9190810190610de0565b5f838152600160208181526040808420815160808101835281546001600160a01b0316815293810154928401929092526002820154908301819052600390910154606083015260a0840151939450909261271091610bba91610f0d565b610bc49190610f2a565b90508015610c7d57815160405163a9059cbb60e01b81526001600160a01b039182166004820152602481018390527f00000000000000000000000000000000000000000000000000000000000000009091169063a9059cbb906044016020604051808303815f875af1158015610c3c573d5f803e3d5ffd5b505050506040513d601f19601f82011682018060405250810190610c609190610f5c565b610c7d576040516312171d8360e31b815260040160405180910390fd5b50505050565b5f60208284031215610c93575f80fd5b5035919050565b6001600160a01b0381168114610cae575f80fd5b50565b5f60208284031215610cc1575f80fd5b8135610ccc81610c9a565b9392505050565b634e487b7160e01b5f52604160045260245ffd5b604051610120810167ffffffffffffffff81118282101715610d0b57610d0b610cd3565b60405290565b604051601f8201601f1916810167ffffffffffffffff81118282101715610d3a57610d3a610cd3565b604052919050565b8051610d4d81610c9a565b919050565b5f82601f830112610d61575f80fd5b815167ffffffffffffffff811115610d7b57610d7b610cd3565b6020610d8f601f8301601f19168201610d11565b8281528582848701011115610da2575f80fd5b5f5b83811015610dbf578581018301518282018401528201610da4565b505f928101909101919091529392505050565b805160048110610d4d575f80fd5b5f60208284031215610df0575f80fd5b815167ffffffffffffffff80821115610e07575f80fd5b908301906101208286031215610e1b575f80fd5b610e23610ce7565b610e2c83610d42565b8152610e3a60208401610d42565b6020820152604083015182811115610e50575f80fd5b610e5c87828601610d52565b604083015250606083015182811115610e73575f80fd5b610e7f87828601610d52565b6060830152506080830151608082015260a083015160a082015260c083015160c082015260e083015182811115610eb4575f80fd5b610ec087828601610d52565b60e0830152506101009150610ed6828401610dd2565b91810191909152949350505050565b634e487b7160e01b5f52602160045260245ffd5b634e487b7160e01b5f52601160045260245ffd5b8082028115828204841417610f2457610f24610ef9565b92915050565b5f82610f4457634e487b7160e01b5f52601260045260245ffd5b500490565b81810381811115610f2457610f24610ef9565b5f60208284031215610f6c575f80fd5b81518015158114610ccc575f80fd5b8281526040810160048310610f9e57634e487b7160e01b5f52602160045260245ffd5b8260208301529392505050565b5f8060408385031215610fbc575f80fd5b825160ff81168114610fcc575f80fd5b6020939093015192949293505050565b5f60208284031215610fec575f80fd5b5051919050565b80820180821115610f2457610f24610ef956fea2646970667358221220e5e37293668704894b17762acd3cc37a5c3547a429a07fcd42e862772cb7c50f64736f6c63430008180033",
  "linkReferences": {},
  "deployedLinkReferences": {}
}