{
  "_format": "hh-sol-artifact-1",
  "contractName": "LetterOfCredit",
  "sourceName": "contracts/LetterOfCredit.sol",
  "abi": [
    {
      "inputs": [
        {
          "internalType": "address",
          "name": "_mAED",
          "type": "address"
        },
        {
          "internalType": "address",
          "name": "_creditRegistry",
          "type": "address"
        }
      ],
      "stateMutability": "nonpayable",
      "type": "constructor"
    },
    {
      "inputs": [],
      "name": "DueDateAlreadyPassed",
      "type": "error"
    },
    {
      "inputs": [],
      "name": "DueDateNotPassed",
      "type": "error"
    },
    {
      "inputs": [],
      "name": "GracePeriodActive",
      "type": "error"
    },
    {
      "inputs": [],
      "name": "InvalidShipmentProof",
      "type": "error"
    },
    {
      "inputs": [],
      "name": "InvalidStatus",
      "type": "error"
    },
    {
      "inputs": [],
      "name": "LCDoesNotExist",
      "type": "error"
    },
    {
      "inputs": [],
      "name": "NotExporter",
      "type": "error"
    },
    {
      "inputs": [],
      "name": "NotImporter",
      "type": "error"
    },
    {
      "inputs": [],
      "name": "TransferFailed",
      "type": "error"
    },
    {
      "anonymous": false,
      "inputs": [
        {
          "indexed": true,
          "internalType": "uint256",
          "name": "lcId",
          "type": "uint256"
        },
        {
          "indexed": true,
          "internalType": "address",
          "name": "exporter",
          "type": "address"
        },
        {
          "indexed": false,
          "internalType": "uint256",
          "name": "amount",
          "type": "uint256"
        }
      ],
      "name": "FundsReleased",
      "type": "event"
    },
    {
      "anonymous": false,
      "inputs": [
        {
          "indexed": true,
          "internalType": "uint256",
          "name": "lcId",
          "type": "uint256"
        }
      ],
      "name": "LCAccepted",
      "type": "event"
    },
    {
      "anonymous": false,
      "inputs": [
        {
          "indexed": true,
          "internalType": "uint256",
          "name": "lcId",
          "type": "uint256"
        },
        {
          "indexed": true,
          "internalType": "address",
          "name": "defaulter",
          "type": "address"
        }
      ],
      "name": "LCDefaulted",
      "type": "event"
    },
    {
      "anonymous": false,
      "inputs": [
        {
          "indexed": true,
          "internalType": "uint256",
          "name": "lcId",
          "type": "uint256"
        },
        {
          "indexed": false,
          "internalType": "uint256",
          "name": "amount",
          "type": "uint256"
        }
      ],
      "name": "LCFunded",
      "type": "event"
    },
    {
      "anonymous": false,
      "inputs": [
        {
          "indexed": true,
          "internalType": "uint256",
          "name": "lcId",
          "type": "uint256"
        },
        {
          "indexed": true,
          "internalType": "address",
          "name": "importer",
          "type": "address"
        },
        {
          "indexed": true,
          "internalType": "address",
          "name": "exporter",
          "type": "address"
        },
        {
          "indexed": false,
          "internalType": "uint256",
          "name": "amount",
          "type": "uint256"
        }
      ],
      "name": "LetterOfCreditCreated",
      "type": "event"
    },
    {
      "anonymous": false,
      "inputs": [
        {
          "indexed": true,
          "internalType": "uint256",
          "name": "lcId",
          "type": "uint256"
        },
        {
          "indexed": false,
          "internalType": "string",
          "name": "shipmentProof",
          "type": "string"
        }
      ],
      "name": "ShipmentProofSubmitted",
      "type": "event"
    },
    {
      "inputs": [
        {
          "internalType": "uint256",
          "name": "lcId",
          "type": "uint256"
        }
      ],
      "name": "acceptLC",
      "outputs": [],
      "stateMutability": "nonpayable",
      "type": "function"
    },
    {
      "inputs": [
        {
          "internalType": "address",
          "name": "exporter",
          "type": "address"
        },
        {
          "internalType": "uint256",
          "name": "amount",
          "type": "uint256"
        },
        {
          "internalType": "uint256",
          "name": "dueDate",
          "type": "uint256"
        },
        {
          "internalType": "string",
          "name": "documentHash",
          "type": "string"
        }
      ],
      "name": "createLC",
      "outputs": [
        {
          "internalType": "uint256",
          "name": "lcId",
          "type": "uint256"
        }
      ],
      "stateMutability": "nonpayable",
      "type": "function"
    },
    {
      "inputs": [],
      "name": "creditRegistry",
      "outputs": [
        {
          "internalType": "contract CreditRegistry",
          "name": "",
          "type": "address"
        }
      ],
      "stateMutability": "view",
      "type": "function"
    },
    {
      "inputs": [
        {
          "internalType": "uint256",
          "name": "lcId",
          "type": "uint256"
        }
      ],
      "name": "fundLC",
      "outputs": [],
      "stateMutability": "nonpayable",
      "type": "function"
    },
    {
      "inputs": [
        {
          "internalType": "uint256",
          "name": "lcId",
          "type": "uint256"
        }
      ],
      "name": "getLC",
      "outputs": [
        {
          "components": [
            {
              "internalType": "uint256",
              "name": "id",
              "type": "uint256"
            },
            {
              "internalType": "address",
              "name": "importer",
              "type": "address"
            },
            {
              "internalType": "address",
              "name": "exporter",
              "type": "address"
            },
            {
              "internalType": "uint256",
              "name": "amount",
              "type": "uint256"
            },
            {
              "internalType": "uint256",
              "name": "dueDate",
              "type": "uint256"
            },
            {
              "internalType": "string",
              "name": "documentHash",
              "type": "string"
            },
            {
              "internalType": "string",
              "name": "shipmentProof",
              "type": "string"
            },
            {
              "internalType": "enum LetterOfCredit.LCStatus",
              "name": "status",
              "type": "uint8"
            }
          ],
          "internalType": "struct LetterOfCredit.LC",
          "name": "",
          "type": "tuple"
        }
      ],
      "stateMutability": "view",
      "type": "function"
    },
    {
      "inputs": [],
      "name": "mAED",
      "outputs": [
        {
          "internalType": "contract IERC20",
          "name": "",
          "type": "address"
        }
      ],
      "stateMutability": "view",
      "type": "function"
    },
    {
      "inputs": [
        {
          "internalType": "uint256",
          "name": "lcId",
          "type": "uint256"
        }
      ],
      "name": "markDefault",
      "outputs": [],
      "stateMutability": "nonpayable",
      "type": "function"
    },
    {
      "inputs": [
        {
          "internalType": "uint256",
          "name": "lcId",
          "type": "uint256"
        }
      ],
      "name": "releaseFunds",
      "outputs": [],
      "stateMutability": "nonpayable",
      "type": "function"
    },
    {
      "inputs": [
        {
          "internalType": "uint256",
          "name": "lcId",
          "type": "uint256"
        },
        {
          "internalType": "string",
          "name": "shipmentProof",
          "type": "string"
        }
      ],
      "name": "submitShipmentProof",
      "outputs": [],
      "stateMutability": "nonpayable",
      "type": "function"
    }
  ],
  "bytecode": "0x60c060405234801561000f575f80fd5b5060405161164738038061164783398101604081905261002e91610060565b6001600160a01b039182166080521660a052610091565b80516001600160a01b038116811461005b575f80fd5b919050565b5f8060408385031215610071575f80fd5b61007a83610045565b915061008860208401610045565b90509250929050565b60805160a0516115646100e35f395f818161016c01528181610c6401528181610d570152610ee701525f818161010d015281816103c80152818161086601528181610e1c0152610fac01526115645ff3fe608060405234801561000f575f80fd5b5060043610610090575f3560e01c80636d4c1f3c116100635780636d4c1f3c146100f5578063710b73cd146101085780638c7a142414610147578063b015a5e814610167578063e1d927c81461018e575f80fd5b806311cb8c33146100945780634d68282f146100a957806363a0d4ea146100bc5780636d1ee3e1146100cf575b5f80fd5b6100a76100a236600461109a565b6101a1565b005b6100a76100b73660046110e2565b6102e6565b6100a76100ca3660046110e2565b61049e565b6100e26100dd3660046110f9565b6105a0565b6040519081526020015b60405180910390f35b6100a76101033660046110e2565b610763565b61012f7f000000000000000000000000000000000000000000000000000000000000000081565b6040516001600160a01b0390911681526020016100ec565b61015a6101553660046110e2565b61092f565b6040516100ec91906111e0565b61012f7f000000000000000000000000000000000000000000000000000000000000000081565b6100a761019c3660046110e2565b610b26565b5f838152600160208190526040909120908101546001600160a01b03166101db576040516320e58f6360e21b815260040160405180910390fd5b6002600782015460ff1660058111156101f6576101f66111ac565b14610214576040516307a92f1960e51b815260040160405180910390fd5b60028101546001600160a01b0316331461024157604051633e5393c760e21b815260040160405180910390fd5b80600401544211156102665760405163137f58c960e21b815260040160405180910390fd5b5f8290036102875760405163064d85fd60e01b815260040160405180910390fd5b60078101805460ff19166003179055600681016102a583858361131b565b50837f76c41f5b7821047268e7ac38e68a83b2193b8a1741a7202c43413fcfb28bbf2084846040516102d89291906113d5565b60405180910390a250505050565b5f818152600160208190526040909120908101546001600160a01b0316610320576040516320e58f6360e21b815260040160405180910390fd5b6003600782015460ff16600581111561033b5761033b6111ac565b14610359576040516307a92f1960e51b815260040160405180910390fd5b60018101546001600160a01b03163314610386576040516301e5953360e41b815260040160405180910390fd5b60078101805460ff191660049081179091556002820154600383015460405163a9059cbb60e01b81526001600160a01b039283169381019390935260248301527f0000000000000000000000000000000000000000000000000000000000000000169063a9059cbb906044016020604051808303815f875af115801561040e573d5f803e3d5ffd5b505050506040513d601f19601f820116820180604052508101906104329190611403565b61044f576040516312171d8360e31b815260040160405180910390fd5b600281015460038201546040519081526001600160a01b039091169083907f6e3c6096795c8298a218b2cfb8bde42726ff7c9a3d27b4d3ba41ab7f74feb5fb9060200160405180910390a35050565b5f818152600160208190526040909120908101546001600160a01b03166104d8576040516320e58f6360e21b815260040160405180910390fd5b6001600782015460ff1660058111156104f3576104f36111ac565b14610511576040516307a92f1960e51b815260040160405180910390fd5b60028101546001600160a01b0316331461053e57604051633e5393c760e21b815260040160405180910390fd5b80600401544211156105635760405163137f58c960e21b815260040160405180910390fd5b60078101805460ff1916600217905560405182907ffe73f40f03f954bb20009a34159fed76403084d8a21d4c2dc1cf036b1f14ac20905f90a25050565b5f4284116105c15760405163137f58c960e21b815260040160405180910390fd5b505f8054908190806105d28361143d565b9190505550604051806101000160405280828152602001336001600160a01b03168152602001876001600160a01b0316815260200186815260200185815260200184848080601f0160208091040260200160405190810160405280939291908181526020018383808284375f92018290525093855250506040805160208181018352848252850152909201915090525f82815260016020818152604092839020845181559084015191810180546001600160a01b039384166001600160a01b03199182161790915592840151600282018054919093169316929092179055606082015160038201556080820151600482015560a082015160058201906106d89082611455565b5060c082015160068201906106ed9082611455565b5060e082015160078201805460ff19166001836005811115610711576107116111ac565b0217905550506040518681526001600160a01b0388169150339083907f09d6361912d615be17ca9d166e0b801904fc5c78ddaae57da35bbca88570264d9060200160405180910390a495945050505050565b5f818152600160208190526040909120908101546001600160a01b031661079d576040516320e58f6360e21b815260040160405180910390fd5b5f600782015460ff1660058111156107b7576107b76111ac565b146107d5576040516307a92f1960e51b815260040160405180910390fd5b60018101546001600160a01b03163314610802576040516301e5953360e41b815260040160405180910390fd5b80600401544211156108275760405163137f58c960e21b815260040160405180910390fd5b60078101805460ff1916600117905560038101546040516323b872dd60e01b815233600482015230602482015260448101919091526001600160a01b037f000000000000000000000000000000000000000000000000000000000000000016906323b872dd906064016020604051808303815f875af11580156108ac573d5f803e3d5ffd5b505050506040513d601f19601f820116820180604052508101906108d09190611403565b6108ed576040516312171d8360e31b815260040160405180910390fd5b817fef4036a38412e8dba7433fb9aa322e5babb8b6b5631f4dc2c54c63ae3a439098826003015460405161092391815260200190565b60405180910390a25050565b610937610ff4565b5f82815260016020819052604090912001546001600160a01b031661096f576040516320e58f6360e21b815260040160405180910390fd5b5f8281526001602081815260409283902083516101008101855281548152928101546001600160a01b0390811692840192909252600281015490911692820192909252600382015460608201526004820154608082015260058201805491929160a0840191906109de90611298565b80601f0160208091040260200160405190810160405280929190818152602001828054610a0a90611298565b8015610a555780601f10610a2c57610100808354040283529160200191610a55565b820191905f5260205f20905b815481529060010190602001808311610a3857829003601f168201915b50505050508152602001600682018054610a6e90611298565b80601f0160208091040260200160405190810160405280929190818152602001828054610a9a90611298565b8015610ae55780601f10610abc57610100808354040283529160200191610ae5565b820191905f5260205f20905b815481529060010190602001808311610ac857829003601f168201915b5050509183525050600782015460209091019060ff166005811115610b0c57610b0c6111ac565b6005811115610b1d57610b1d6111ac565b90525092915050565b5f818152600160208190526040909120908101546001600160a01b0316610b60576040516320e58f6360e21b815260040160405180910390fd5b6004600782015460ff166005811115610b7b57610b7b6111ac565b1480610b9f57506005600782015460ff166005811115610b9d57610b9d6111ac565b145b15610bbd576040516307a92f1960e51b815260040160405180910390fd5b80600401544211610be157604051632a8611a560e11b815260040160405180910390fd5b6004810154610bf39062015180611515565b4211610c125760405163478f84e760e01b815260040160405180910390fd5b600781018054600560ff198216811790925560ff16905f908290811115610c3b57610c3b6111ac565b03610cfd57600182015460405163cc8bc0cf60e01b81526001600160a01b0391821660048201527f00000000000000000000000000000000000000000000000000000000000000009091169063cc8bc0cf906024015f604051808303815f87803b158015610ca7575f80fd5b505af1158015610cb9573d5f803e3d5ffd5b50505060018301546040516001600160a01b03909116915084907f9b198ca51d95acd353a7ced390194b4c482bc27b8858078440bc9f3f04faaac2905f90a3505050565b6001816005811115610d1157610d116111ac565b1480610d2e57506002816005811115610d2c57610d2c6111ac565b145b15610eaa57600282015460405163cc8bc0cf60e01b81526001600160a01b0391821660048201527f00000000000000000000000000000000000000000000000000000000000000009091169063cc8bc0cf906024015f604051808303815f87803b158015610d9a575f80fd5b505af1158015610dac573d5f803e3d5ffd5b50505060028301546040516001600160a01b03909116915084907f9b198ca51d95acd353a7ced390194b4c482bc27b8858078440bc9f3f04faaac2905f90a36001820154600383015460405163a9059cbb60e01b81526001600160a01b03928316600482015260248101919091527f00000000000000000000000000000000000000000000000000000000000000009091169063a9059cbb906044016020604051808303815f875af1158015610e64573d5f803e3d5ffd5b505050506040513d601f19601f82011682018060405250810190610e889190611403565b610ea5576040516312171d8360e31b815260040160405180910390fd5b505050565b6003816005811115610ebe57610ebe6111ac565b03610ea557600182015460405163cc8bc0cf60e01b81526001600160a01b0391821660048201527f00000000000000000000000000000000000000000000000000000000000000009091169063cc8bc0cf906024015f604051808303815f87803b158015610f2a575f80fd5b505af1158015610f3c573d5f803e3d5ffd5b50505060018301546040516001600160a01b03909116915084907f9b198ca51d95acd353a7ced390194b4c482bc27b8858078440bc9f3f04faaac2905f90a36002820154600383015460405163a9059cbb60e01b81526001600160a01b03928316600482015260248101919091527f00000000000000000000000000000000000000000000000000000000000000009091169063a9059cbb906044016020604051808303815f875af1158015610e64573d5f803e3d5ffd5b6040518061010001604052805f81526020015f6001600160a01b031681526020015f6001600160a01b031681526020015f81526020015f815260200160608152602001606081526020015f6005811115611050576110506111ac565b905290565b5f8083601f840112611065575f80fd5b50813567ffffffffffffffff81111561107c575f80fd5b602083019150836020828501011115611093575f80fd5b9250929050565b5f805f604084860312156110ac575f80fd5b83359250602084013567ffffffffffffffff8111156110c9575f80fd5b6110d586828701611055565b9497909650939450505050565b5f602082840312156110f2575f80fd5b5035919050565b5f805f805f6080868803121561110d575f80fd5b85356001600160a01b0381168114611123575f80fd5b94506020860135935060408601359250606086013567ffffffffffffffff81111561114c575f80fd5b61115888828901611055565b969995985093965092949392505050565b5f81518084525f5b8181101561118d57602081850181015186830182015201611171565b505f602082860101526020601f19601f83011685010191505092915050565b634e487b7160e01b5f52602160045260245ffd5b600681106111dc57634e487b7160e01b5f52602160045260245ffd5b9052565b602081528151602082015260018060a01b0360208301511660408201525f604083015161121860608401826001600160a01b03169052565b5060608301516080830152608083015160a083015260a08301516101008060c0850152611249610120850183611169565b915060c0850151601f198584030160e08601526112668382611169565b92505060e085015161127a828601826111c0565b5090949350505050565b634e487b7160e01b5f52604160045260245ffd5b600181811c908216806112ac57607f821691505b6020821081036112ca57634e487b7160e01b5f52602260045260245ffd5b50919050565b601f821115610ea557805f5260205f20601f840160051c810160208510156112f55750805b601f840160051c820191505b81811015611314575f8155600101611301565b5050505050565b67ffffffffffffffff83111561133357611333611284565b611347836113418354611298565b836112d0565b5f601f841160018114611378575f85156113615750838201355b5f19600387901b1c1916600186901b178355611314565b5f83815260208120601f198716915b828110156113a75786850135825560209485019460019092019101611387565b50868210156113c3575f1960f88860031b161c19848701351681555b505060018560011b0183555050505050565b60208152816020820152818360408301375f818301604090810191909152601f909201601f19160101919050565b5f60208284031215611413575f80fd5b81518015158114611422575f80fd5b9392505050565b634e487b7160e01b5f52601160045260245ffd5b5f6001820161144e5761144e611429565b5060010190565b815167ffffffffffffffff81111561146f5761146f611284565b6114838161147d8454611298565b846112d0565b602080601f8311600181146114b6575f841561149f5750858301515b5f19600386901b1c1916600185901b17855561150d565b5f85815260208120601f198616915b828110156114e4578886015182559484019460019091019084016114c5565b508582101561150157878501515f19600388901b60f8161c191681555b505060018460011b0185555b505050505050565b8082018082111561152857611528611429565b9291505056fea26469706673582212208ec29a8f52c9509818ecd1330dc91b0f51537067964076218d35b11221afd38564736f6c63430008180033",
  "linkReferences": {},
  "deployedLinkReferences": {}
}