{
  "_format": "hh-sol-artifact-1",
  "contractName": "ReceivableNFT",
  "sourceName": "contracts/ReceivableNFT.sol",
  "abi": [
    {
      "inputs": [],
      "stateMutability": "nonpayable",
      "type": "constructor"
    },
    {
      "inputs": [],
      "name": "AccessControlBadConfirmation",
      "type": "error"
    },
    {
      "inputs": [
        {
          "internalType": "address",
          "name": "account",
          "type": "address"
        },
        {
          "internalType": "bytes32",
          "name": "neededRole",
          "type": "bytes32"
        }
      ],
      "name": "AccessControlUnauthorizedAccount",
      "type": "error"
    },
    {
      "inputs": [],
      "name": "DuplicateInvoice",
      "type": "error"
    },
    {
      "inputs": [
        {
          "internalType": "address",
          "name": "sender",
          "type": "address"
        },
        {
          "internalType": "uint256",
          "name": "tokenId",
          "type": "uint256"
        },
        {
          "internalType": "address",
          "name": "owner",
          "type": "address"
        }
      ],
      "name": "ERC721IncorrectOwner",
      "type": "error"
    },
    {
      "inputs": [
        {
          "internalType": "address",
          "name": "operator",
          "type": "address"
        },
        {
          "internalType": "uint256",
          "name": "tokenId",
          "type": "uint256"
        }
      ],
      "name": "ERC721InsufficientApproval",
      "type": "error"
    },
    {
      "inputs": [
        {
          "internalType": "address",
          "name": "approver",
          "type": "address"
        }
      ],
      "name": "ERC721InvalidApprover",
      "type": "error"
    },
    {
      "inputs": [
        {
          "internalType": "address",
          "name": "operator",
          "type": "address"
        }
      ],
      "name": "ERC721InvalidOperator",
      "type": "error"
    },
    {
      "inputs": [
        {
          "internalType": "address",
          "name": "owner",
          "type": "address"
        }
      ],
      "name": "ERC721InvalidOwner",
      "type": "error"
    },
    {
      "inputs": [
        {
          "internalType": "address",
          "name": "receiver",
          "type": "address"
        }
      ],
      "name": "ERC721InvalidReceiver",
      "type": "error"
    },
    {
      "inputs": [
        {
          "internalType": "address",
          "name": "sender",
          "type": "address"
        }
      ],
      "name": "ERC721InvalidSender",
      "type": "error"
    },
    {
      "inputs": [
        {
          "internalType": "uint256",
          "name": "tokenId",
          "type": "uint256"
        }
      ],
      "name": "ERC721NonexistentToken",
      "type": "error"
    },
    {
      "inputs": [],
      "name": "NotController",
      "type": "error"
    },
    {
      "inputs": [],
      "name": "ReceivableDoesNotExist",
      "type": "error"
    },
    {
      "anonymous": false,
      "inputs": [
        {
          "indexed": true,
          "internalType": "address",
          "name": "owner",
          "type": "address"
        },
        {
          "indexed": true,
          "internalType": "address",
          "name": "approved",
          "type": "address"
        },
        {
          "indexed": true,
          "internalType": "uint256",
          "name": "tokenId",
          "type": "uint256"
        }
      ],
      "name": "Approval",
      "type": "event"
    },
    {
      "anonymous": false,
      "inputs": [
        {
          "indexed": true,
          "internalType": "address",
          "name": "owner",
          "type": "address"
        },
        {
          "indexed": true,
          "internalType": "address",
          "name": "operator",
          "type": "address"
        },
        {
          "indexed": false,
          "internalType": "bool",
          "name": "approved",
          "type": "bool"
        }
      ],
      "name": "ApprovalForAll",
      "type": "event"
    },
    {
      "anonymous": false,
      "inputs": [
        {
          "indexed": true,
          "internalType": "uint256",
          "name": "tokenId",
          "type": "uint256"
        }
      ],
      "name": "InvoiceDefaulted",
      "type": "event"
    },
    {
      "anonymous": false,
      "inputs": [
        {
          "indexed": true,
          "internalType": "uint256",
          "name": "tokenId",
          "type": "uint256"
        },
        {
          "indexed": true,
          "internalType": "address",
          "name": "supplier",
          "type": "address"
        },
        {
          "indexed": false,
          "internalType": "uint256",
          "name": "amount",
          "type": "uint256"
        },
        {
          "indexed": false,
          "internalType": "uint256",
          "name": "dueDate",
          "type": "uint256"
        }
      ],
      "name": "InvoiceMinted",
      "type": "event"
    },
    {
      "anonymous": false,
      "inputs": [
        {
          "indexed": true,
          "internalType": "bytes32",
          "name": "role",
          "type": "bytes32"
        },
        {
          "indexed": true,
          "internalType": "bytes32",
          "name": "previousAdminRole",
          "type": "bytes32"
        },
        {
          "indexed": true,
          "internalType": "bytes32",
          "name": "newAdminRole",
          "type": "bytes32"
        }
      ],
      "name": "RoleAdminChanged",
      "type": "event"
    },
    {
      "anonymous": false,
      "inputs": [
        {
          "indexed": true,
          "internalType": "bytes32",
          "name": "role",
          "type": "bytes32"
        },
        {
          "indexed": true,
          "internalType": "address",
          "name": "account",
          "type": "address"
        },
        {
          "indexed": true,
          "internalType": "address",
          "name": "sender",
          "type": "address"
        }
      ],
      "name": "RoleGranted",
      "type": "event"
    },
    {
      "anonymous": false,
      "inputs": [
        {
          "indexed": true,
          "internalType": "bytes32",
          "name": "role",
          "type": "bytes32"
        },
        {
          "indexed": true,
          "internalType": "address",
          "name": "account",
          "type": "address"
        },
        {
          "indexed": true,
          "internalType": "address",
          "name": "sender",
          "type": "address"
        }
      ],
      "name": "RoleRevoked",
      "type": "event"
    },
    {
      "anonymous": false,
      "inputs": [
        {
          "indexed": true,
          "internalType": "uint256",
          "name": "tokenId",
          "type": "uint256"
        },
        {
          "indexed": false,
          "internalType": "enum ReceivableStatus",
          "name": "oldStatus",
          "type": "uint8"
        },
        {
          "indexed": false,
          "internalType": "enum ReceivableStatus",
          "name": "newStatus",
          "type": "uint8"
        }
      ],
      "name": "StatusUpdated",
      "type": "event"
    },
    {
      "anonymous": false,
      "inputs": [
        {
          "indexed": true,
          "internalType": "address",
          "name": "from",
          "type": "address"
        },
        {
          "indexed": true,
          "internalType": "address",
          "name": "to",
          "type": "address"
        },
        {
          "indexed": true,
          "internalType": "uint256",
          "name": "tokenId",
          "type": "uint256"
        }
      ],
      "name": "Transfer",
      "type": "event"
    },
    {
      "inputs": [],
      "name": "CONTROLLER_ROLE",
      "outputs": [
        {
          "internalType": "bytes32",
          "name": "",
          "type": "bytes32"
        }
      ],
      "stateMutability": "view",
      "type": "function"
    },
    {
      "inputs": [],
      "name": "DEFAULT_ADMIN_ROLE",
      "outputs": [
        {
          "internalType": "bytes32",
          "name": "",
          "type": "bytes32"
        }
      ],
      "stateMutability": "view",
      "type": "function"
    },
    {
      "inputs": [
        {
          "internalType": "address",
          "name": "to",
          "type": "address"
        },
        {
          "internalType": "uint256",
          "name": "tokenId",
          "type": "uint256"
        }
      ],
      "name": "approve",
      "outputs": [],
      "stateMutability": "nonpayable",
      "type": "function"
    },
    {
      "inputs": [
        {
          "internalType": "address",
          "name": "owner",
          "type": "address"
        }
      ],
      "name": "balanceOf",
      "outputs": [
        {
          "internalType": "uint256",
          "name": "",
          "type": "uint256"
        }
      ],
      "stateMutability": "view",
      "type": "function"
    },
    {
      "inputs": [
        {
          "internalType": "uint256",
          "name": "tokenId",
          "type": "uint256"
        }
      ],
      "name": "getApproved",
      "outputs": [
        {
          "internalType": "address",
          "name": "",
          "type": "address"
        }
      ],
      "stateMutability": "view",
      "type": "function"
    },
    {
      "inputs": [
        {
          "internalType": "uint256",
          "name": "tokenId",
          "type": "uint256"
        }
      ],
      "name": "getReceivable",
      "outputs": [
        {
          "components": [
            {
              "internalType": "address",
              "name": "supplier",
              "type": "address"
            },
            {
              "internalType": "address",
              "name": "buyerAddress",
              "type": "address"
            },
            {
              "internalType": "string",
              "name": "buyerName",
              "type": "string"
            },
            {
              "internalType": "string",
              "name": "invoiceNumber",
              "type": "string"
            },
            {
              "internalType": "bytes32",
              "name": "invoiceHash",
              "type": "bytes32"
            },
            {
              "internalType": "uint256",
              "name": "amount",
              "type": "uint256"
            },
            {
              "internalType": "uint256",
              "name": "dueDate",
              "type": "uint256"
            },
            {
              "internalType": "string",
              "name": "invoiceIPFSHash",
              "type": "string"
            },
            {
              "internalType": "enum ReceivableStatus",
              "name": "status",
              "type": "uint8"
            }
          ],
          "internalType": "struct Receivable",
          "name": "",
          "type": "tuple"
        }
      ],
      "stateMutability": "view",
      "type": "function"
    },
    {
      "inputs": [
        {
          "internalType": "bytes32",
          "name": "role",
          "type": "bytes32"
        }
      ],
      "name": "getRoleAdmin",
      "outputs": [
        {
          "internalType": "bytes32",
          "name": "",
          "type": "bytes32"
        }
      ],
      "stateMutability": "view",
      "type": "function"
    },
    {
      "inputs": [
        {
          "internalType": "bytes32",
          "name": "role",
          "type": "bytes32"
        },
        {
          "internalType": "address",
          "name": "account",
          "type": "address"
        }
      ],
      "name": "grantRole",
      "outputs": [],
      "stateMutability": "nonpayable",
      "type": "function"
    },
    {
      "inputs": [
        {
          "internalType": "bytes32",
          "name": "role",
          "type": "bytes32"
        },
        {
          "internalType": "address",
          "name": "account",
          "type": "address"
        }
      ],
      "name": "hasRole",
      "outputs": [
        {
          "internalType": "bool",
          "name": "",
          "type": "bool"
        }
      ],
      "stateMutability": "view",
      "type": "function"
    },
    {
      "inputs": [
        {
          "internalType": "address",
          "name": "owner",
          "type": "address"
        },
        {
          "internalType": "address",
          "name": "operator",
          "type": "address"
        }
      ],
      "name": "isApprovedForAll",
      "outputs": [
        {
          "internalType": "bool",
          "name": "",
          "type": "bool"
        }
      ],
      "stateMutability": "view",
      "type": "function"
    },
    {
      "inputs": [
        {
          "internalType": "uint256",
          "name": "tokenId",
          "type": "uint256"
        }
      ],
      "name": "markDefaulted",
      "outputs": [],
      "stateMutability": "nonpayable",
      "type": "function"
    },
    {
      "inputs": [
        {
          "internalType": "address",
          "name": "buyerAddress",
          "type": "address"
        },
        {
          "internalType": "string",
          "name": "buyerName",
          "type": "string"
        },
        {
          "internalType": "string",
          "name": "invoiceNumber",
          "type": "string"
        },
        {
          "internalType": "uint256",
          "name": "amount",
          "type": "uint256"
        },
        {
          "internalType": "uint256",
          "name": "dueDate",
          "type": "uint256"
        },
        {
          "internalType": "string",
          "name": "invoiceIPFSHash",
          "type": "string"
        }
      ],
      "name": "mintReceivable",
      "outputs": [
        {
          "internalType": "uint256",
          "name": "tokenId",
          "type": "uint256"
        }
      ],
      "stateMutability": "nonpayable",
      "type": "function"
    },
    {
      "inputs": [],
      "name": "name",
      "outputs": [
        {
          "internalType": "string",
          "name": "",
          "type": "string"
        }
      ],
      "stateMutability": "view",
      "type": "function"
    },
    {
      "inputs": [
        {
          "internalType": "uint256",
          "name": "tokenId",
          "type": "uint256"
        }
      ],
      "name": "ownerOf",
      "outputs": [
        {
          "internalType": "address",
          "name": "",
          "type": "address"
        }
      ],
      "stateMutability": "view",
      "type": "function"
    },
    {
      "inputs": [
        {
          "internalType": "bytes32",
          "name": "role",
          "type": "bytes32"
        },
        {
          "internalType": "address",
          "name": "callerConfirmation",
          "type": "address"
        }
      ],
      "name": "renounceRole",
      "outputs": [],
      "stateMutability": "nonpayable",
      "type": "function"
    },
    {
      "inputs": [
        {
          "internalType": "bytes32",
          "name": "role",
          "type": "bytes32"
        },
        {
          "internalType": "address",
          "name": "account",
          "type": "address"
        }
      ],
      "name": "revokeRole",
      "outputs": [],
      "stateMutability": "nonpayable",
      "type": "function"
    },
    {
      "inputs": [
        {
          "internalType": "address",
          "name": "from",
          "type": "address"
        },
        {
          "internalType": "address",
          "name": "to",
          "type": "address"
        },
        {
          "internalType": "uint256",
          "name": "tokenId",
          "type": "uint256"
        }
      ],
      "name": "safeTransferFrom",
      "outputs": [],
      "stateMutability": "nonpayable",
      "type": "function"
    },
    {
      "inputs": [
        {
          "internalType": "address",
          "name": "from",
          "type": "address"
        },
        {
          "internalType": "address",
          "name": "to",
          "type": "address"
        },
        {
          "internalType": "uint256",
          "name": "tokenId",
          "type": "uint256"
        },
        {
          "internalType": "bytes",
          "name": "data",
          "type": "bytes"
        }
      ],
      "name": "safeTransferFrom",
      "outputs": [],
      "stateMutability": "nonpayable",
      "type": "function"
    },
    {
      "inputs": [
        {
          "internalType": "address",
          "name": "operator",
          "type": "address"
        },
        {
          "internalType": "bool",
          "name": "approved",
          "type": "bool"
        }
      ],
      "name": "setApprovalForAll",
      "outputs": [],
      "stateMutability": "nonpayable",
      "type": "function"
    },
    {
      "inputs": [
        {
          "internalType": "address",
          "name": "controller",
          "type": "address"
        },
        {
          "internalType": "bool",
          "name": "allowed",
          "type": "bool"
        }
      ],
      "name": "setController",
      "outputs": [],
      "stateMutability": "nonpayable",
      "type": "function"
    },
    {
      "inputs": [
        {
          "internalType": "bytes4",
          "name": "interfaceId",
          "type": "bytes4"
        }
      ],
      "name": "supportsInterface",
      "outputs": [
        {
          "internalType": "bool",
          "name": "",
          "type": "bool"
        }
      ],
      "stateMutability": "view",
      "type": "function"
    },
    {
      "inputs": [],
      "name": "symbol",
      "outputs": [
        {
          "internalType": "string",
          "name": "",
          "type": "string"
        }
      ],
      "stateMutability": "view",
      "type": "function"
    },
    {
      "inputs": [
        {
          "internalType": "uint256",
          "name": "tokenId",
          "type": "uint256"
        }
      ],
      "name": "tokenURI",
      "outputs": [
        {
          "internalType": "string",
          "name": "",
          "type": "string"
        }
      ],
      "stateMutability": "view",
      "type": "function"
    },
    {
      "inputs": [
        {
          "internalType": "address",
          "name": "from",
          "type": "address"
        },
        {
          "internalType": "address",
          "name": "to",
          "type": "address"
        },
        {
          "internalType": "uint256",
          "name": "tokenId",
          "type": "uint256"
        }
      ],
      "name": "transferFrom",
      "outputs": [],
      "stateMutability": "nonpayable",
      "type": "function"
    },
    {
      "inputs": [
        {
          "internalType": "uint256",
          "name": "tokenId",
          "type": "uint256"
        },
        {
          "internalType": "enum ReceivableStatus",
          "name": "newStatus",
          "type": "uint8"
        }
      ],
      "name": "updateStatus",
      "outputs": [],
      "stateMutability": "nonpayable",
      "type": "function"
    }
  ],
  "bytecode": "0x608060405234801562000010575f80fd5b506040518060400160405280600e81526020016d149958d95a5d98589b194813919560921b815250604051806040016040528060048152602001633924a72b60e11b815250815f9081620000659190620001da565b506001620000748282620001da565b506200008591505f9050336200008c565b50620002a6565b5f8281526006602090815260408083206001600160a01b038516845290915281205460ff1662000133575f8381526006602090815260408083206001600160a01b03861684529091529020805460ff19166001179055620000ea3390565b6001600160a01b0316826001600160a01b0316847f2f8788117e7eff1d82e926ec794901d17c78024a50270940304540a733656f0d60405160405180910390a450600162000136565b505f5b92915050565b634e487b7160e01b5f52604160045260245ffd5b600181811c908216806200016557607f821691505b6020821081036200018457634e487b7160e01b5f52602260045260245ffd5b50919050565b601f821115620001d557805f5260205f20601f840160051c81016020851015620001b15750805b601f840160051c820191505b81811015620001d2575f8155600101620001bd565b50505b505050565b81516001600160401b03811115620001f657620001f66200013c565b6200020e8162000207845462000150565b846200018a565b602080601f83116001811462000244575f84156200022c5750858301515b5f19600386901b1c1916600185901b1785556200029e565b5f85815260208120601f198616915b82811015620002745788860151825594840194600190910190840162000253565b50858210156200029257878501515f19600388901b60f8161c191681555b505060018460011b0185555b505050505050565b611ec680620002b45f395ff3fe608060405234801561000f575f80fd5b506004361061016d575f3560e01c806370a08231116100d9578063a22cb46511610093578063c87b56dd1161006e578063c87b56dd14610345578063d547741f14610358578063e0dba60f1461036b578063e985e9c51461037e575f80fd5b8063a22cb465146102ff578063a94c9f7d14610312578063b88d4fde14610332575f80fd5b806370a08231146102a457806373216450146102b757806391d14854146102ca57806395d89b41146102dd5780639a1bdf09146102e5578063a217fddf146102f8575f80fd5b8063248a9ca31161012a578063248a9ca3146102235780632f2ff15d1461024557806336568abe146102585780633a1b3d311461026b57806342842e0e1461027e5780636352211e14610291575f80fd5b806301ffc9a71461017157806306fdde0314610199578063081812fc146101ae578063092c5b3b146101d9578063095ea7b3146101fb57806323b872dd14610210575b5f80fd5b61018461017f366004611740565b610391565b60405190151581526020015b60405180910390f35b6101a16103a1565b60405161019091906117a8565b6101c16101bc3660046117ba565b610430565b6040516001600160a01b039091168152602001610190565b6101ed5f80516020611e7183398151915281565b604051908152602001610190565b61020e6102093660046117ec565b610457565b005b61020e61021e366004611814565b610466565b6101ed6102313660046117ba565b5f9081526006602052604090206001015490565b61020e61025336600461184d565b6104f4565b61020e61026636600461184d565b610518565b61020e610279366004611877565b610550565b61020e61028c366004611814565b61062e565b6101c161029f3660046117ba565b610648565b6101ed6102b23660046118a8565b610652565b61020e6102c53660046117ba565b610697565b6101846102d836600461184d565b61078f565b6101a16107b9565b6101ed6102f3366004611906565b6107c8565b6101ed5f81565b61020e61030d3660046119bd565b610aaf565b6103256103203660046117ba565b610aba565b6040516101909190611a1f565b61020e610340366004611b00565b610d39565b6101a16103533660046117ba565b610d51565b61020e61036636600461184d565b610dc2565b61020e6103793660046119bd565b610de6565b61018461038c366004611bd5565b610e24565b5f61039b82610e51565b92915050565b60605f80546103af90611bfd565b80601f01602080910402602001604051908101604052809291908181526020018280546103db90611bfd565b80156104265780601f106103fd57610100808354040283529160200191610426565b820191905f5260205f20905b81548152906001019060200180831161040957829003601f168201915b5050505050905090565b5f61043a82610e75565b505f828152600460205260409020546001600160a01b031661039b565b610462828233610ead565b5050565b6001600160a01b03821661049457604051633250574960e11b81525f60048201526024015b60405180910390fd5b5f6104a0838333610eba565b9050836001600160a01b0316816001600160a01b0316146104ee576040516364283d7b60e01b81526001600160a01b038086166004830152602482018490528216604482015260640161048b565b50505050565b5f8281526006602052604090206001015461050e81610fac565b6104ee8383610fb9565b6001600160a01b03811633146105415760405163334bd91960e11b815260040160405180910390fd5b61054b828261104a565b505050565b6105675f80516020611e718339815191523361078f565b610584576040516323019e6760e01b815260040160405180910390fd5b5f828152600260205260409020546001600160a01b03166105b857604051637bfd9cbd60e01b815260040160405180910390fd5b5f82815260086020819052604090912001805460ff811691839160ff191660018360038111156105ea576105ea6119eb565b0217905550827fc371b0415465aff17c34272123d75d5aee0e5c80f4e0b07eaef8eb23d37f43848284604051610621929190611c35565b60405180910390a2505050565b61054b83838360405180602001604052805f815250610d39565b5f61039b82610e75565b5f6001600160a01b03821661067c576040516322718ad960e21b81525f600482015260240161048b565b506001600160a01b03165f9081526003602052604090205490565b6106ae5f80516020611e718339815191523361078f565b6106cb576040516323019e6760e01b815260040160405180910390fd5b5f818152600260205260409020546001600160a01b03166106ff57604051637bfd9cbd60e01b815260040160405180910390fd5b5f81815260086020819052604090912001805460ff81169160039160ff19166001830217905550817fc371b0415465aff17c34272123d75d5aee0e5c80f4e0b07eaef8eb23d37f4384826003604051610759929190611c35565b60405180910390a260405182907fdad3d8c24c5e0a13ffb0c0fa573014d3c4ba10367d5cba3549fa7c9ac18b93a4905f90a25050565b5f9182526006602090815260408084206001600160a01b0393909316845291905290205460ff1690565b6060600180546103af90611bfd565b5f806002338c8a8a8a8a6040516020016107e796959493929190611c50565b60408051601f198184030181529082905261080191611c95565b602060405180830381855afa15801561081c573d5f803e3d5ffd5b5050506040513d601f19601f8201168201806040525081019061083f9190611cb0565b5f8181526009602052604090205490915060ff161561087157604051633c002dc160e01b815260040160405180910390fd5b5f818152600960205260408120805460ff19166001179055600780549350839161089a83611cc7565b91905055506108a933836110b5565b604051806101200160405280336001600160a01b031681526020018c6001600160a01b031681526020018b8b8080601f0160208091040260200160405190810160405280939291908181526020018383808284375f92019190915250505090825250604080516020601f8c018190048102820181019092528a815291810191908b908b90819084018382808284375f92019190915250505090825250602080820184905260408083018a9052606083018990528051601f88018390048302810183019091528681526080909201919087908790819084018382808284375f92018290525093855250506020909201915090525f83815260086020908152604091829020835181546001600160a01b03199081166001600160a01b03928316178355928501516001830180549094169116179091559082015160028201906109f09082611d2f565b5060608201516003820190610a059082611d2f565b506080820151600482015560a0820151600582015560c0820151600682015560e08201516007820190610a389082611d2f565b5061010082015160088201805460ff19166001836003811115610a5d57610a5d6119eb565b021790555050604080518881526020810188905233925084917f881b3356c91302df3b86b06710c720259f76e5c4696c76b0b21a3e73998a38b7910160405180910390a3509998505050505050505050565b610462338383611116565b610ac26116c0565b5f828152600260205260409020546001600160a01b0316610af657604051637bfd9cbd60e01b815260040160405180910390fd5b5f8281526008602090815260409182902082516101208101845281546001600160a01b039081168252600183015416928101929092526002810180549293919291840191610b4390611bfd565b80601f0160208091040260200160405190810160405280929190818152602001828054610b6f90611bfd565b8015610bba5780601f10610b9157610100808354040283529160200191610bba565b820191905f5260205f20905b815481529060010190602001808311610b9d57829003601f168201915b50505050508152602001600382018054610bd390611bfd565b80601f0160208091040260200160405190810160405280929190818152602001828054610bff90611bfd565b8015610c4a5780601f10610c2157610100808354040283529160200191610c4a565b820191905f5260205f20905b815481529060010190602001808311610c2d57829003601f168201915b50505050508152602001600482015481526020016005820154815260200160068201548152602001600782018054610c8190611bfd565b80601f0160208091040260200160405190810160405280929190818152602001828054610cad90611bfd565b8015610cf85780601f10610ccf57610100808354040283529160200191610cf8565b820191905f5260205f20905b815481529060010190602001808311610cdb57829003601f168201915b5050509183525050600882015460209091019060ff166003811115610d1f57610d1f6119eb565b6003811115610d3057610d306119eb565b90525092915050565b610d44848484610466565b6104ee33858585856111dd565b6060610d5c82610e75565b505f610d7260408051602081019091525f815290565b90505f815111610d905760405180602001604052805f815250610dbb565b80610d9a84611305565b604051602001610dab929190611deb565b6040516020818303038152906040525b9392505050565b5f82815260066020526040902060010154610ddc81610fac565b6104ee838361104a565b5f610df081610fac565b8115610e0d576104ee5f80516020611e7183398151915284610fb9565b6104ee5f80516020611e718339815191528461104a565b6001600160a01b039182165f90815260056020908152604080832093909416825291909152205460ff1690565b5f6001600160e01b03198216637965db0b60e01b148061039b575061039b82611395565b5f818152600260205260408120546001600160a01b03168061039b57604051637e27328960e01b81526004810184905260240161048b565b61054b83838360016113e4565b5f828152600260205260408120546001600160a01b0390811690831615610ee657610ee68184866114e8565b6001600160a01b03811615610f2057610f015f855f806113e4565b6001600160a01b0381165f90815260036020526040902080545f190190555b6001600160a01b03851615610f4e576001600160a01b0385165f908152600360205260409020805460010190555b5f8481526002602052604080822080546001600160a01b0319166001600160a01b0389811691821790925591518793918516917fddf252ad1be2c89b69c2b068fc378daa952ba7f163c4a11628f55a4df523b3ef91a4949350505050565b610fb6813361154c565b50565b5f610fc4838361078f565b611043575f8381526006602090815260408083206001600160a01b03861684529091529020805460ff19166001179055610ffb3390565b6001600160a01b0316826001600160a01b0316847f2f8788117e7eff1d82e926ec794901d17c78024a50270940304540a733656f0d60405160405180910390a450600161039b565b505f61039b565b5f611055838361078f565b15611043575f8381526006602090815260408083206001600160a01b0386168085529252808320805460ff1916905551339286917ff6391f5c32d9c69d2a47ea670b442974b53935d1edc7fd64eb21e047a839171b9190a450600161039b565b6001600160a01b0382166110de57604051633250574960e11b81525f600482015260240161048b565b5f6110ea83835f610eba565b90506001600160a01b0381161561054b576040516339e3563760e11b81525f600482015260240161048b565b6001600160a01b03831661113f5760405163a9fbf51f60e01b81525f600482015260240161048b565b6001600160a01b03821661117157604051630b61174360e31b81526001600160a01b038316600482015260240161048b565b6001600160a01b038381165f81815260056020908152604080832094871680845294825291829020805460ff191686151590811790915591519182527f17307eab39ab6107e8899845ad3d59bd9653f200f220920489ca2b5937696c31910160405180910390a3505050565b6001600160a01b0383163b156112fe57604051630a85bd0160e11b81526001600160a01b0384169063150b7a029061121f908890889087908790600401611e19565b6020604051808303815f875af1925050508015611259575060408051601f3d908101601f1916820190925261125691810190611e55565b60015b6112c0573d808015611286576040519150601f19603f3d011682016040523d82523d5f602084013e61128b565b606091505b5080515f036112b857604051633250574960e11b81526001600160a01b038516600482015260240161048b565b805160208201fd5b6001600160e01b03198116630a85bd0160e11b146112fc57604051633250574960e11b81526001600160a01b038516600482015260240161048b565b505b5050505050565b60605f61131183611585565b60010190505f8167ffffffffffffffff81111561133057611330611aec565b6040519080825280601f01601f19166020018201604052801561135a576020820181803683370190505b5090508181016020015b5f19016f181899199a1a9b1b9c1cb0b131b232b360811b600a86061a8153600a850494508461136457509392505050565b5f6001600160e01b031982166380ac58cd60e01b14806113c557506001600160e01b03198216635b5e139f60e01b145b8061039b57506301ffc9a760e01b6001600160e01b031983161461039b565b80806113f857506001600160a01b03821615155b156114b9575f61140784610e75565b90506001600160a01b038316158015906114335750826001600160a01b0316816001600160a01b031614155b801561144657506114448184610e24565b155b1561146f5760405163a9fbf51f60e01b81526001600160a01b038416600482015260240161048b565b81156114b75783856001600160a01b0316826001600160a01b03167f8c5be1e5ebec7d5bd14f71427d1e84f3dd0314c0f7b2291e5b200ac8c7c3b92560405160405180910390a45b505b50505f90815260046020526040902080546001600160a01b0319166001600160a01b0392909216919091179055565b6114f383838361165c565b61054b576001600160a01b03831661152157604051637e27328960e01b81526004810182905260240161048b565b60405163177e802f60e01b81526001600160a01b03831660048201526024810182905260440161048b565b611556828261078f565b6104625760405163e2517d3f60e01b81526001600160a01b03821660048201526024810183905260440161048b565b5f8072184f03e93ff9f4daa797ed6e38ed64bf6a1f0160401b83106115c35772184f03e93ff9f4daa797ed6e38ed64bf6a1f0160401b830492506040015b6d04ee2d6d415b85acef810000000083106115ef576d04ee2d6d415b85acef8100000000830492506020015b662386f26fc10000831061160d57662386f26fc10000830492506010015b6305f5e1008310611625576305f5e100830492506008015b612710831061163957612710830492506004015b6064831061164b576064830492506002015b600a831061039b5760010192915050565b5f6001600160a01b038316158015906116b85750826001600160a01b0316846001600160a01b0316148061169557506116958484610e24565b806116b857505f828152600460205260409020546001600160a01b038481169116145b949350505050565b6040518061012001604052805f6001600160a01b031681526020015f6001600160a01b0316815260200160608152602001606081526020015f80191681526020015f81526020015f8152602001606081526020015f6003811115611726576117266119eb565b905290565b6001600160e01b031981168114610fb6575f80fd5b5f60208284031215611750575f80fd5b8135610dbb8161172b565b5f5b8381101561177557818101518382015260200161175d565b50505f910152565b5f815180845261179481602086016020860161175b565b601f01601f19169290920160200192915050565b602081525f610dbb602083018461177d565b5f602082840312156117ca575f80fd5b5035919050565b80356001600160a01b03811681146117e7575f80fd5b919050565b5f80604083850312156117fd575f80fd5b611806836117d1565b946020939093013593505050565b5f805f60608486031215611826575f80fd5b61182f846117d1565b925061183d602085016117d1565b9150604084013590509250925092565b5f806040838503121561185e575f80fd5b8235915061186e602084016117d1565b90509250929050565b5f8060408385031215611888575f80fd5b8235915060208301356004811061189d575f80fd5b809150509250929050565b5f602082840312156118b8575f80fd5b610dbb826117d1565b5f8083601f8401126118d1575f80fd5b50813567ffffffffffffffff8111156118e8575f80fd5b6020830191508360208285010111156118ff575f80fd5b9250929050565b5f805f805f805f805f60c08a8c03121561191e575f80fd5b6119278a6117d1565b985060208a013567ffffffffffffffff80821115611943575f80fd5b61194f8d838e016118c1565b909a50985060408c0135915080821115611967575f80fd5b6119738d838e016118c1565b909850965060608c0135955060808c0135945060a08c0135915080821115611999575f80fd5b506119a68c828d016118c1565b915080935050809150509295985092959850929598565b5f80604083850312156119ce575f80fd5b6119d7836117d1565b91506020830135801515811461189d575f80fd5b634e487b7160e01b5f52602160045260245ffd5b60048110611a1b57634e487b7160e01b5f52602160045260245ffd5b9052565b60208152611a396020820183516001600160a01b03169052565b5f6020830151611a5460408401826001600160a01b03169052565b506040830151610120806060850152611a7161014085018361177d565b91506060850151601f1980868503016080870152611a8f848361177d565b9350608087015160a087015260a087015160c087015260c087015160e087015260e08701519150610100818786030181880152611acc858461177d565b94508088015192505050611ae2828601826119ff565b5090949350505050565b634e487b7160e01b5f52604160045260245ffd5b5f805f8060808587031215611b13575f80fd5b611b1c856117d1565b9350611b2a602086016117d1565b925060408501359150606085013567ffffffffffffffff80821115611b4d575f80fd5b818701915087601f830112611b60575f80fd5b813581811115611b7257611b72611aec565b604051601f8201601f19908116603f01168101908382118183101715611b9a57611b9a611aec565b816040528281528a6020848701011115611bb2575f80fd5b826020860160208301375f60208483010152809550505050505092959194509250565b5f8060408385031215611be6575f80fd5b611bef836117d1565b915061186e602084016117d1565b600181811c90821680611c1157607f821691505b602082108103611c2f57634e487b7160e01b5f52602260045260245ffd5b50919050565b60408101611c4382856119ff565b610dbb60208301846119ff565b5f6bffffffffffffffffffffffff19808960601b168352808860601b166014840152508486602884013750602893019283019190915260488201526068019392505050565b5f8251611ca681846020870161175b565b9190910192915050565b5f60208284031215611cc0575f80fd5b5051919050565b5f60018201611ce457634e487b7160e01b5f52601160045260245ffd5b5060010190565b601f82111561054b57805f5260205f20601f840160051c81016020851015611d105750805b601f840160051c820191505b818110156112fe575f8155600101611d1c565b815167ffffffffffffffff811115611d4957611d49611aec565b611d5d81611d578454611bfd565b84611ceb565b602080601f831160018114611d90575f8415611d795750858301515b5f19600386901b1c1916600185901b1785556112fc565b5f85815260208120601f198616915b82811015611dbe57888601518255948401946001909101908401611d9f565b5085821015611ddb57878501515f19600388901b60f8161c191681555b5050505050600190811b01905550565b5f8351611dfc81846020880161175b565b835190830190611e1081836020880161175b565b01949350505050565b6001600160a01b03858116825284166020820152604081018390526080606082018190525f90611e4b9083018461177d565b9695505050505050565b5f60208284031215611e65575f80fd5b8151610dbb8161172b56fe7b765e0e932d348852a6f810bfa1ab891e259123f02db8cdcde614c570223357a264697066735822122030408b9bfa8277d7eac8e30bc10752e634d80f6803c75a142f3c53e26f8b3df564736f6c63430008180033",
  "linkReferences": {},
  "deployedLinkReferences": {}
}