{
  "_format": "hh-sol-artifact-1",
  "contractName": "RepaymentEscrow",
  "sourceName": "contracts/RepaymentEscrow.sol",
  "abi": [
    {
      "inputs": [
        {
          "internalType": "address",
          "name": "_receivableNFT",
          "type": "address"
        },
        {
          "internalType": "address",
          "name": "_marketplace",
          "type": "address"
        },
        {
          "internalType": "address",
          "name": "_mUSDC",
          "type": "address"
        }
      ],
      "stateMutability": "nonpayable",
      "type": "constructor"
    },
    {
      "inputs": [],
      "name": "NotFunded",
      "type": "error"
    },
    {
      "inputs": [],
      "name": "TransferFailed",
      "type": "error"
    },
    {
      "anonymous": false,
      "inputs": [
        {
          "indexed": true,
          "internalType": "uint256",
          "name": "tokenId",
          "type": "uint256"
        },
        {
          "indexed": true,
          "internalType": "address",
          "name": "lender",
          "type": "address"
        },
        {
          "indexed": false,
          "internalType": "uint256",
          "name": "lenderPayout",
          "type": "uint256"
        }
      ],
      "name": "PayoutSplit",
      "type": "event"
    },
    {
      "anonymous": false,
      "inputs": [
        {
          "indexed": true,
          "internalType": "uint256",
          "name": "tokenId",
          "type": "uint256"
        },
        {
          "indexed": true,
          "internalType": "address",
          "name": "payer",
          "type": "address"
        },
        {
          "indexed": false,
          "internalType": "uint256",
          "name": "amount",
          "type": "uint256"
        }
      ],
      "name": "RepaymentReceived",
      "type": "event"
    },
    {
      "inputs": [],
      "name": "mUSDC",
      "outputs": [
        {
          "internalType": "contract IERC20",
          "name": "",
          "type": "address"
        }
      ],
      "stateMutability": "view",
      "type": "function"
    },
    {
      "inputs": [],
      "name": "marketplace",
      "outputs": [
        {
          "internalType": "contract InvoiceMarketplace",
          "name": "",
          "type": "address"
        }
      ],
      "stateMutability": "view",
      "type": "function"
    },
    {
      "inputs": [
        {
          "internalType": "uint256",
          "name": "tokenId",
          "type": "uint256"
        }
      ],
      "name": "previewPayout",
      "outputs": [
        {
          "internalType": "uint256",
          "name": "lenderPayout",
          "type": "uint256"
        }
      ],
      "stateMutability": "view",
      "type": "function"
    },
    {
      "inputs": [],
      "name": "receivableNFT",
      "outputs": [
        {
          "internalType": "contract ReceivableNFT",
          "name": "",
          "type": "address"
        }
      ],
      "stateMutability": "view",
      "type": "function"
    },
    {
      "inputs": [
        {
          "internalType": "uint256",
          "name": "tokenId",
          "type": "uint256"
        }
      ],
      "name": "repay",
      "outputs": [],
      "stateMutability": "nonpayable",
      "type": "function"
    }
  ],
  "bytecode": "0x60e060405234801561000f575f80fd5b50604051610b22380380610b2283398101604081905261002e91610066565b6001600160a01b0392831660805290821660a0521660c0526100a6565b80516001600160a01b0381168114610061575f80fd5b919050565b5f805f60608486031215610078575f80fd5b6100818461004b565b925061008f6020850161004b565b915061009d6040850161004b565b90509250925092565b60805160a05160c051610a1d6101055f395f818160ff015281816102a4015261035b01525f818160b7015281816101fc015281816103fa015261061a01525f81816073015281816101390152818161046e015261058c0152610a1d5ff3fe608060405234801561000f575f80fd5b5060043610610055575f3560e01c8063371fd8e61461005957806356892ab91461006e578063abc8c7af146100b2578063c5adf210146100d9578063f89ec5f5146100fa575b5f80fd5b61006c6100673660046106c2565b610121565b005b6100957f000000000000000000000000000000000000000000000000000000000000000081565b6040516001600160a01b0390911681526020015b60405180910390f35b6100957f000000000000000000000000000000000000000000000000000000000000000081565b6100ec6100e73660046106c2565b61056a565b6040519081526020016100a9565b6100957f000000000000000000000000000000000000000000000000000000000000000081565b60405163a94c9f7d60e01b8152600481018290525f907f00000000000000000000000000000000000000000000000000000000000000006001600160a01b03169063a94c9f7d906024015f60405180830381865afa158015610185573d5f803e3d5ffd5b505050506040513d5f823e601f3d908101601f191682016040526101ac91908101906107f0565b905060018160a0015160038111156101c6576101c66108b1565b146101e457604051636af784dd60e11b815260040160405180910390fd5b604051633afb52f560e21b8152600481018390525f907f00000000000000000000000000000000000000000000000000000000000000006001600160a01b03169063ebed4bd490602401608060405180830381865afa158015610249573d5f803e3d5ffd5b505050506040513d601f19601f8201168201806040525081019061026d91906108c5565b90505f6102798461056a565b60408481015190516323b872dd60e01b815233600482015230602482015260448101919091529091507f00000000000000000000000000000000000000000000000000000000000000006001600160a01b0316906323b872dd906064016020604051808303815f875af11580156102f2573d5f803e3d5ffd5b505050506040513d601f19601f82011682018060405250810190610316919061092e565b610333576040516312171d8360e31b815260040160405180910390fd5b815160405163a9059cbb60e01b81526001600160a01b039182166004820152602481018390527f00000000000000000000000000000000000000000000000000000000000000009091169063a9059cbb906044016020604051808303815f875af11580156103a3573d5f803e3d5ffd5b505050506040513d601f19601f820116820180604052508101906103c7919061092e565b6103e4576040516312171d8360e31b815260040160405180910390fd5b60405163f63a659f60e01b8152600481018590527f00000000000000000000000000000000000000000000000000000000000000006001600160a01b03169063f63a659f906024015f604051808303815f87803b158015610443575f80fd5b505af1158015610455573d5f803e3d5ffd5b5050604051633a1b3d3160e01b81526001600160a01b037f0000000000000000000000000000000000000000000000000000000000000000169250633a1b3d3191506104a8908790600290600401610954565b5f604051808303815f87803b1580156104bf575f80fd5b505af11580156104d1573d5f803e3d5ffd5b50505050336001600160a01b0316847fe9fee62db30e95d1345497ae064a46a0565ad9981172079211ca137b20999686856040015160405161051591815260200190565b60405180910390a3815f01516001600160a01b0316847f3a62ff014af1665b80ead1d4711ac2cabb6fb39680d7d27727c4fd17f1dd161c8360405161055c91815260200190565b60405180910390a350505050565b60405163a94c9f7d60e01b8152600481018290525f9081906001600160a01b037f0000000000000000000000000000000000000000000000000000000000000000169063a94c9f7d906024015f60405180830381865afa1580156105d0573d5f803e3d5ffd5b505050506040513d5f823e601f3d908101601f191682016040526105f791908101906107f0565b604051633afb52f560e21b8152600481018590529091505f906001600160a01b037f0000000000000000000000000000000000000000000000000000000000000000169063ebed4bd490602401608060405180830381865afa15801561065f573d5f803e3d5ffd5b505050506040513d601f19601f8201168201806040525081019061068391906108c5565b90505f6127108260400151846040015161069d9190610998565b6106a791906109b5565b90508082602001516106b991906109d4565b95945050505050565b5f602082840312156106d2575f80fd5b5035919050565b634e487b7160e01b5f52604160045260245ffd5b60405160c0810167ffffffffffffffff81118282101715610710576107106106d9565b60405290565b604051601f8201601f1916810167ffffffffffffffff8111828210171561073f5761073f6106d9565b604052919050565b80516001600160a01b038116811461075d575f80fd5b919050565b5f82601f830112610771575f80fd5b815167ffffffffffffffff81111561078b5761078b6106d9565b602061079f601f8301601f19168201610716565b82815285828487010111156107b2575f80fd5b5f5b838110156107cf5785810183015182820184015282016107b4565b505f928101909101919091529392505050565b80516004811061075d575f80fd5b5f60208284031215610800575f80fd5b815167ffffffffffffffff80821115610817575f80fd5b9083019060c0828603121561082a575f80fd5b6108326106ed565b61083b83610747565b815260208301518281111561084e575f80fd5b61085a87828601610762565b6020830152506040830151604082015260608301516060820152608083015182811115610885575f80fd5b61089187828601610762565b6080830152506108a360a084016107e2565b60a082015295945050505050565b634e487b7160e01b5f52602160045260245ffd5b5f608082840312156108d5575f80fd5b6040516080810181811067ffffffffffffffff821117156108f8576108f86106d9565b60405261090483610747565b81526020830151602082015260408301516040820152606083015160608201528091505092915050565b5f6020828403121561093e575f80fd5b8151801515811461094d575f80fd5b9392505050565b828152604081016004831061097757634e487b7160e01b5f52602160045260245ffd5b8260208301529392505050565b634e487b7160e01b5f52601160045260245ffd5b80820281158282048414176109af576109af610984565b92915050565b5f826109cf57634e487b7160e01b5f52601260045260245ffd5b500490565b808201808211156109af576109af61098456fea26469706673582212201c70449cf2f21ca998d41f586414dcce3c81c12a1f8e4613ab165ddc39b8c3f964736f6c63430008180033",
  "linkReferences": {},
  "deployedLinkReferences": {}
}